:100000000C942A000C942F1A0C94621A0C94951AD2
:100010000C94D8150C940B160C943E160C94711677
:100020000C94A4160C94D7160C940A170C943D1734
:100030000C9447000C9447000C9447000C94470024
:100040000C9447000C9447000C9447000C94470014
:100050000C94470011241FBECFE5D8E0DEBFCDBF12
:1000600012E0A0E6B0E0E8E1FDE602C005900D92E6
:10007000A233B107D9F712E0A2E3B2E001C01D92AA
:10008000A338B107E1F70E944D2F0C948A360C94E7
:100090000000EF92FF920F931F937B018C0120E0F1
:1000A00030E040E05FE40E94F50388238CF0C80153
:1000B000B70120E030E040E05FE40E94C1010E940F
:1000C000B3049B01AC01205030404040504806C072
:1000D000C801B7010E94B3049B01AC01B901CA0178
:1000E0001F910F91FF90EF900895A0E0B0E0EBE733
:1000F000F0E00C945336DC012B01FA019C91923014
:1001000008F439C1EB018881823008F433C194309E
:1001100069F4843009F02FC111969C91119789815F
:10012000981709F428C1ACE0B1E025C1843009F486
:1001300021C18230A9F4923009F01DC19A01AD01AC
:1001400088E0EA010990AE01E90109929E0181501F
:10015000C1F7E201898111969C918923818308C1AD
:10016000923009F407C112962D903C901397EB0141
:100170008A819B811496AD90BD90CD90DC901797AD
:10018000EC80FD800E811F819101281B390BB90184
:1001900037FF04C066277727621B730B6032710537
:1001A0000CF061C0121613066CF537014801062EDB
:1001B00004C096948794779467940A94D2F721E0C8
:1001C00030E040E050E004C0220F331F441F551FB1
:1001D0006A95D2F721503040404050402E213F21B7
:1001E00040235123211531054105510521F021E01E
:1001F00030E040E050E079018A01E628F72808293C
:1002000019293CC0232BD1F1260E371E350146019A
:10021000062E04C096948794779467940A94D2F734
:1002200021E030E040E050E004C0220F331F441FC3
:10023000551F6A95D2F721503040404050402A2146
:100240003B214C215D21211531054105510521F04E
:1002500021E030E040E050E059016A01A628B728CB
:10026000C828D9280BC0821593052CF01C01AA249C
:10027000BB24650103C0EE24FF24870111969C91E5
:10028000D20111968C91981709F445C0992339F041
:10029000A80197012A193B094C095D0906C0A6016E
:1002A00095012E193F09400B510B57FD08C01182D3
:1002B0003382228224833583468357831DC081E0A5
:1002C00081833382228288279927DC01821B930B4A
:1002D000A40BB50B84839583A683B7830DC0220F2F
:1002E000331F441F551F24833583468357838281E0
:1002F000938101979383828324813581468157813D
:10030000DA01C9010197A109B1098F5F9F4FAF4F72
:10031000BF4328F30BC0918333822282EA0CFB1C7B
:100320000C1D1D1DE482F5820683178383E0808304
:10033000248135814681578157FF1AC0C901AA27F8
:1003400097FDA095BA2F81709070A070B0705695EF
:10035000479537952795822B932BA42BB52B848318
:100360009583A683B7838281938101969383828349
:10037000DF0101C0D201CD01CDB7DEB7E2E10C94BF
:100380006F36A0E2B0E0E7ECF1E00C945F366983F1
:100390007A838B839C832D833E834F835887E9E048
:1003A000EE2EF12CEC0EFD1ECE010196B7010E943F
:1003B000A4068E010F5E1F4FCE010596B8010E9464
:1003C000A4068A8991E089278A8BC701B801AE010A
:1003D000475E5F4F0E9475000E94CF05A096E6E041
:1003E0000C947B36A0E2B0E0E8EFF1E00C945F36CD
:1003F00069837A838B839C832D833E834F835887C5
:10040000F9E0EF2EF12CEC0EFD1ECE010196B701A6
:100410000E94A4068E010F5E1F4FCE010596B80103
:100420000E94A406C701B801AE01475E5F4F0E945B
:1004300075000E94CF05A096E6E00C947B36A0E202
:10044000B0E0E5E2F2E00C94533669837A838B8363
:100450009C832D833E834F835887CE010196BE0136
:10046000675F7F4F0E94A406CE010596BE016F5EB6
:100470007F4F0E94A4069985923088F08989823046
:10048000C8F0943019F4823051F404C0843029F457
:10049000923081F48CE091E0C6C0923049F420E0C3
:1004A0009A858A89981321E02A87CE010996BBC0D4
:1004B000823049F420E09A858A89981321E02A8BBA
:1004C000CE014196B0C02D843E844F8458886D88FB
:1004D0007E888F88988CEE24FF248701AA24BB2471
:1004E000650140E050E060E070E0E0E0F0E0C10174
:1004F00081709070892BE9F0E60CF71C081D191D1E
:100500009A01AB012A0D3B1D4C1D5D1D80E090E062
:10051000A0E0B0E0E614F7040805190520F481E036
:1005200090E0A0E0B0E0BA01A901480F591F6A1F8E
:100530007B1FAA0CBB1CCC1CDD1C97FE08C081E0F5
:1005400090E0A0E0B0E0A82AB92ACA2ADB2A3196B6
:10055000E032F10549F0660C771C881C991C569412
:10056000479437942794C3CFFA85EA892B893C892D
:100570008B859C85280F391F2E5F3F4F17C0CA01FE
:1005800081709070892B61F016950795F794E79428
:1005900080E090E0A0E0B0E8E82AF92A0A2B1B2BC3
:1005A00076956795579547952F5F3F4F77FDE7CF36
:1005B0000CC0440F551F661F771F17FD4160EE0CDE
:1005C000FF1C001F111F21503040403090E05907A0
:1005D00090E0690790E4790760F32B8F3C8FDB0193
:1005E000CA018F779070A070B07080349105A1051A
:1005F000B10561F447FD0AC0E114F10401051105DC
:1006000029F0405C5F4F6F4F7F4F40781A8EFE1786
:1006100011F081E08A8F4D8F5E8F6F8F78A383E01A
:10062000898FCE0149960E94CF05A096E2E10C94F5
:100630006F36A8E1B0E0EFE1F3E00C945B3669833C
:100640007A838B839C832D833E834F835887B9E0C5
:10065000EB2EF12CEC0EFD1ECE010196B7010E948F
:10066000A4068E010F5E1F4FCE010596B8010E94B1
:10067000A4062985223008F47EC03989323010F46E
:10068000B8017CC08A859A8989278A87243011F02D
:10069000223031F4231709F06EC06CE071E06EC0B7
:1006A000343039F41D861E861F86188A1C861B86E8
:1006B00004C0323021F484E08987B7015FC02B8504
:1006C0003C858B899C89281B390B3C872B87ED84C3
:1006D000FE840F851889AD88BE88CF88D88CEA142F
:1006E000FB040C051D0540F4EE0CFF1C001F111F40
:1006F000215030403C872B8720E030E040E050E044
:1007000080E090E0A0E0B0E460E070E0EA14FB0478
:100710000C051D0540F0282B392B4A2B5B2BEA18C2
:10072000FB080C091D09B695A79597958795EE0CC2
:10073000FF1C001F111F6F5F7F4F6F31710531F775
:10074000DA01C9018F779070A070B0708034910584
:10075000A105B10561F427FD0AC0E114F10401050A
:10076000110529F0205C3F4F4F4F5F4F20782D87B8
:100770003E874F87588BBE01675F7F4FCB010E943A
:10078000CF056896EAE00C947736A8E1B0E0EBEC90
:10079000F3E00C945F3669837A838B839C832D838B
:1007A0003E834F83588789E0E82EF12CEC0EFD1E26
:1007B000CE010196B7010E94A4068E010F5E1F4F65
:1007C000CE010596B8010E94A4068985823040F0CA
:1007D0008989823028F0C701B8010E941C0701C036
:1007E0008FEF6896E6E00C947B36A8E1B0E0EBEF83
:1007F000F3E00C945F3669837A838B839C832D832B
:100800003E834F83588789E0E82EF12CEC0EFD1EC5
:10081000CE010196B7010E94A4068E010F5E1F4F04
:10082000CE010596B8010E94A4068985823040F069
:100830008989823028F0C701B8010E941C0701C0D5
:100840008FEF6896E6E00C947B36A8E1B0E0EBE22F
:10085000F4E00C945F3669837A838B839C832D83C9
:100860003E834F83588789E0E82EF12CEC0EFD1E65
:10087000CE010196B7010E94A4068E010F5E1F4FA4
:10088000CE010596B8010E94A4068985823040F009
:100890008989823028F0C701B8010E941C0701C075
:1008A00081E06896E6E00C947B36A8E0B0E0EBE5EA
:1008B000F4E00C945C369B01AC0183E08983DA019F
:1008C000C9018827B7FD83959927AA27BB27B82E8A
:1008D000211531054105510519F482E089833AC09B
:1008E0008823A9F0203080E0380780E0480780E8BE
:1008F000580729F460E070E080E09FEC30C0EE24FF
:10090000FF248701E21AF30A040B150B02C07901D8
:100910008A018EE1C82ED12CDC82CB82ED82FE8250
:100920000F831887C801B7010E9480050197181628
:10093000190684F4082E04C0EE0CFF1C001F111FC2
:100940000A94D2F7ED82FE820F831887C81AD90A5B
:10095000DC82CB82BA82CE0101960E94CF05289616
:10096000E9E00C947836ACE0B0E0E9EBF4E00C940C
:10097000633669837A838B839C83CE010196BE01A3
:100980006B5F7F4F0E94A4068D81823061F18230BF
:1009900050F1843021F48E81882351F12EC02F81B3
:1009A000388537FD20C06E812F3131051CF066235C
:1009B000F9F023C08EE190E0821B930B29853A85E4
:1009C0004B855C8504C056954795379527958A9544
:1009D000D2F76623B1F050954095309521953F4F61
:1009E0004F4F5F4F0EC020E030E040E050E009C0C4
:1009F0002FEF3FEF4FEF5FE704C020E030E040E033
:100A000050E8B901CA012C96E2E00C947F36A8E0C8
:100A1000B0E0EDE0F5E00C945B367B018C016115F4
:100A200071058105910519F482E0898360C083E036
:100A300089838EE1C82ED12CDC82CB82ED82FE82AE
:100A40000F831887C801B7010E948005FC01319708
:100A5000F7FF3BC0222733272E1B3F0B57016801AE
:100A6000022E04C0D694C794B794A7940A94D2F7E0
:100A700040E050E060E070E081E090E0A0E0B0E0B5
:100A800004C0880F991FAA1FBB1F2A95D2F7019790
:100A9000A109B1098E219F21A023B1230097A105AF
:100AA000B10521F041E050E060E070E04A295B29A7
:100AB0006C297D294D835E836F8378878EE190E07A
:100AC0008E1B9F0B9C838B8312C0309781F00E2E60
:100AD00004C0EE0CFF1C001F111F0A94D2F7ED8218
:100AE000FE820F831887CE1ADF0ADC82CB821A823D
:100AF000CE0101960E94CF052896EAE00C94773645
:100B0000EF92FF920F931F937B018C0180E0E81618
:100B100080E0F80681E0080780E0180788F48FEF8E
:100B2000E816F1040105110531F028F088E090E0A5
:100B3000A0E0B0E017C080E090E0A0E0B0E012C01C
:100B400080E0E81680E0F80680E0080781E01807FA
:100B500028F088E190E0A0E0B0E004C080E190E0FF
:100B6000A0E0B0E020E230E040E050E0281B390B8C
:100B70004A0B5B0B04C016950795F794E7948A958A
:100B8000D2F7F701EC5EFE4F8081281B3109410945
:100B90005109C9011F910F91FF90EF900895DF92C5
:100BA000EF92FF920F931F93FC01E480F580068182
:100BB0001781D1808081823048F480E090E0A0E10C
:100BC000B0E0E82AF92A0A2B1B2BA5C0843009F4CF
:100BD0009FC0823021F4EE24FF24870105C0E11478
:100BE000F1040105110519F4E0E0F0E096C062811E
:100BF00073819FEF623879070CF05BC022E83FEF0A
:100C0000261B370B2A3131052CF020E030E040E084
:100C100050E02AC0B801A701022E04C0769567955E
:100C2000579547950A94D2F781E090E0A0E0B0E0B4
:100C300004C0880F991FAA1FBB1F2A95D2F70197DE
:100C4000A109B1098E219F21A023B1230097A105FD
:100C5000B10521F081E090E0A0E0B0E09A01AB01A5
:100C6000282B392B4A2B5B2BDA01C9018F77907027
:100C7000A070B07080349105A105B10539F427FF4B
:100C800009C0205C3F4F4F4F5F4F04C0215C3F4F76
:100C90004F4F5F4FE0E0F0E02030A0E03A07A0E0E7
:100CA0004A07A0E45A0710F0E1E0F0E079018A0178
:100CB00027C06038710564F5FB01E158FF4FD8018A
:100CC000C7018F779070A070B07080349105A10536
:100CD000B10539F4E7FE0DC080E490E0A0E0B0E09B
:100CE00004C08FE390E0A0E0B0E0E80EF91E0A1F18
:100CF0001B1F17FF05C016950795F794E7943196CB
:100D000087E016950795F794E7948A95D1F705C083
:100D1000EE24FF248701EFEFF0E06E2F6795662742
:100D20006795902F9F77D794DD24D7948E2F869543
:100D3000492F462B582F5D29B701CA011F910F91EA
:100D4000FF90EF90DF900895FC01DB01408151811D
:100D50002281622F6F7770E0221F2227221F93814A
:100D6000892F880F822B282F30E0991F9927991FF0
:100D700011969C93119721153105A9F5411551053F
:100D80006105710511F482E037C082E89FEF139688
:100D90009C938E9312979A01AB0167E0220F331F49
:100DA000441F551F6A95D1F783E08C930DC0220F25
:100DB000331F441F551F12968D919C9113970197D5
:100DC00013969C938E931297203080E0380780E032
:100DD000480780E4580758F314962D933D934D939C
:100DE0005C93179708952F3F310579F4411551050C
:100DF0006105710519F484E08C93089564FF03C0C4
:100E000081E08C9312C01C9210C02F573040139673
:100E10003C932E93129783E08C9387E0440F551FE9
:100E2000661F771F8A95D1F7706414964D935D9372
:100E30006D937C93179708951F93DC01FB019C91A0
:100E4000923008F447C08081823008F443C0943067
:100E500051F411961C91843099F58181682F70E0CE
:100E6000611B71093FC0843021F0923031F482302F
:100E7000B9F18181882389F12DC011961C911197B8
:100E80008230F1F081811817D9F412962D913C919E
:100E90001397828193818217930794F0281739075B
:100EA000BCF014968D919D910D90BC91A02D248144
:100EB000358146815781281739074A075B0718F49F
:100EC000112341F00AC082179307A407B50740F425
:100ED000112319F061E070E005C06FEF7FEF02C0F1
:100EE00060E070E0CB011F910895DF93CF9300D0B5
:100EF0000F92CDB7DEB789838981282F30E03B83FD
:100F00002A838A819B818330910509F470C02A81EC
:100F10003B812430310584F48A819B8181309105A5
:100F2000D1F12A813B81223031050CF04AC08A81FF
:100F30009B810097D1F0C8C02A813B8125303105C3
:100F400009F481C08A819B81853091050CF465C0CC
:100F50002A813B812630310509F48BC08A819B812F
:100F60008730910509F49BC0AFC0A1E4B0E0E1E493
:100F7000F0E080818E7F8C93A1E4B0E0E1E4F0E0CA
:100F800080818D7F8C93A1E4B0E0E1E4F0E080818A
:100F90008B7F8C9399C0A1E4B0E0E1E4F0E0808124
:100FA00081608C93A1E4B0E0E1E4F0E080818D7F8A
:100FB0008C93A1E4B0E0E1E4F0E080818B7F8C933E
:100FC00083C0A1E4B0E0E1E4F0E080818E7F8C9307
:100FD000A1E4B0E0E1E4F0E0808182608C93A1E4E0
:100FE000B0E0E1E4F0E080818B7F8C936DC0A1E400
:100FF000B0E0E1E4F0E0808181608C93A1E4B0E0B6
:10100000E1E4F0E0808182608C93A1E4B0E0E1E46F
:10101000F0E080818B7F8C9357C0A1E4B0E0E1E4E5
:10102000F0E080818E7F8C93A1E4B0E0E1E4F0E019
:1010300080818D7F8C93A1E4B0E0E1E4F0E08081D9
:1010400084608C9341C0A1E4B0E0E1E4F0E08081F1
:1010500081608C93A1E4B0E0E1E4F0E080818D7FD9
:101060008C93A1E4B0E0E1E4F0E0808184608C93B3
:101070002BC0A1E4B0E0E1E4F0E080818E7F8C93AE
:10108000A1E4B0E0E1E4F0E0808182608C93A1E42F
:10109000B0E0E1E4F0E0808184608C9315C0A1E4CD
:1010A000B0E0E1E4F0E0808181608C93A1E4B0E005
:1010B000E1E4F0E0808182608C93A1E4B0E0E1E4BF
:1010C000F0E0808184608C93A1E4B0E0E1E4F0E0A2
:1010D000808188608C930F900F900F90CF91DF915B
:1010E0000895DF93CF93CDB7DEB7A1E4B0E0E1E49C
:1010F000F0E0808188618C93E1E4F0E01082CF9190
:10110000DF910895DF93CF9300D000D000D0CDB70A
:10111000DEB76B837C838D839E831A821982A9E25A
:10112000B0E0E9E2F0E08281826012968C93A9E25D
:10113000B0E0E9E2F0E08181806111968C93A9E250
:10114000B0E0E9E2F0E08181886011968C93A9E239
:10115000B0E0E9E2F0E08789806857968C93A9E2D5
:10116000B0E0E9E2F0E087898F7B57968C93A9E2A3
:10117000B0E0E9E2F0E087898F7E57968C93A9E290
:10118000B0E0E9E2F0E087898F7D57968C93A9E281
:10119000B0E0E9E2F0E08789877F57968C93A9E277
:1011A000B0E0E9E2F0E08789826057968C93A9E28B
:1011B000B0E0E9E2F0E08789846057968C93A9E279
:1011C000B0E0E9E2F0E081818B7F11968C938B8116
:1011D0009C81AD81BE81880F991FAA1FBB1F880FFC
:1011E000991FAA1FBB1F880F991FAA1FBB1FBC01F5
:1011F000CD010E9407059B01AC0160E074E284EF21
:101200009AE40E941903DC01CB01BC01CD0120E06E
:1012100030E040E85FE30E94C101DC01CB01BC018A
:10122000CD010E944900DC01CB019A838983E9E268
:10123000F0E089818083A9E2B0E0E9E2F0E087890B
:101240008F7757968C935797E9E2F0E089819A81DE
:10125000892F99278F70878B26960FB6F894DEBF5B
:101260000FBECDBFCF91DF910895DF93CF930F9243
:10127000CDB7DEB78983E9E2F0E082818295869579
:101280008770882F90E0817090700097A1F3E9E259
:10129000F0E089818383E9E2F0E08281829586959E
:1012A00086958370882F90E081709070009799F3F5
:1012B0000F90CF91DF910895DF93CF93CDB7DEB735
:1012C000E9E2F0E082818823DCF7E9E2F0E0838163
:1012D000CF91DF910895DF93CF930F92CDB7DEB713
:1012E000898389810E9435090E945C090F90CF9102
:1012F000DF910895DF93CF9300D000D000D0CDB719
:10130000DEB79E838D8319821A821B821C8219820A
:101310001A821B821C8215C029813A818D819E818F
:10132000FC01E20FF31F80810E94350989819A81B7
:10133000AB81BC810196A11DB11D89839A83AB83CA
:10134000BC8329813A818D819E81FC01E20FF31FCC
:101350008081882309F726960FB6F894DEBF0FBE6A
:10136000CDBFCF91DF9108950F931F93DF93CF935C
:1013700000D000D0CDB7DEB769837A838B839C839E
:10138000A0E2B0E0E0E2F0E081818C7F11968C93E6
:1013900069817A818B819C810E940705DC01CB01E8
:1013A000BC01CD0120E034E244EF58E40E94C503C3
:1013B000181624F4E0E2F0E0108245C069817A81D9
:1013C0008B819C810E940705DC01CB01BC01CD0112
:1013D0002FEC30E343E755E40E94250488232CF4E6
:1013E000E0E2F0E08FEF80832EC000E210E0698140
:1013F0007A818B819C810E9407059B01AC0160E092
:1014000074E284EF9AE40E941903DC01CB01BC0171
:10141000CD0120E030E040E851E40E94C101DC0150
:10142000CB01BC01CD0120E030E040E050E40E945F
:101430001903DC01CB01BC01CD010E944900DC0194
:10144000CB01F8018083A0E2B0E0E0E2F0E086A901
:101450008460D6968C93D6970F900F900F900F9034
:10146000CF91DF911F910F910895DF93CF9300D01B
:101470000F92CDB7DEB7E0E2F0E084EA86ABE0E2BF
:10148000F0E086A98823DCF7E0E2F0E08181882F94
:1014900090E09C01287F30703B832A838A819B8166
:1014A0008830910529F02A813B812031310511F4E2
:1014B000198202C031E0398389810F900F900F901B
:1014C000CF91DF910895DF93CF93CDB7DEB7E0E200
:1014D000F0E084E986ABE0E2F0E086A982958F70C7
:1014E000882F90E0817090708823A9F7CF91DF91C9
:1014F0000895DF93CF9300D000D0CDB7DEB78983B6
:10150000E0E2F0E089818383E0E2F0E084E886AB0A
:10151000E0E2F0E086A98823DCF7E0E2F0E08181F8
:10152000882F90E09C01287F30703C832B838B8137
:101530009C818832910551F02B813C81203431050A
:1015400029F08B819C818831910511F41A8202C0A7
:1015500091E09A838A810F900F900F900F90CF9116
:10156000DF910895DF93CF93CDB7DEB7E0E2F0E0EF
:1015700084EC86ABE0E2F0E086A98823DCF7E0E2C9
:10158000F0E08381CF91DF910895DF93CF93CDB7C2
:10159000DEB7E0E2F0E084E886ABE0E2F0E086A9C6
:1015A0008823DCF7E0E2F0E08381CF91DF910895BA
:1015B000DF93CF93CDB7DEB728970FB6F894DEBF91
:1015C0000FBECDBF8B836C834D833F832E8384E11D
:1015D0008A8319828C81882311F4188637C084E1AC
:1015E0008A832FC00E94350A882341F58B81880F9A
:1015F0000E94790A882311F58D810E94790A882337
:10160000E9F4198213C08981282F30E08E819F81EF
:10161000FC01E20FF31F80810E94790A813019F4E6
:1016200081E0888713C089818F5F898399818C814C
:10163000981748F30E94630A188608C08A8181506F
:101640008A838A81882371F681E088878885289635
:101650000FB6F894DEBF0FBECDBFCF91DF910895D6
:101660000F931F93DF93CF93CDB7DEB728970FB6B5
:10167000F894DEBF0FBECDBF8B836C834D833F8359
:101680002E8384E18A8319828C81882311F4188641
:1016900056C084E18A834DC00E94350A882309F030
:1016A00045C08B81880F0E94790A882309F03EC0CB
:1016B0008D810E94790A8823C9F50E94350A882302
:1016C000A9F58B81882F90E0880F991F81600E9477
:1016D000790A882359F519820FC08981282F30E0B3
:1016E0008E819F818C01020F131F0E94B20AF801A4
:1016F000808389818F5F89838981282F30E08C8165
:10170000882F90E00197281739073CF38981282F0B
:1017100030E08E819F818C01020F131F0E94C50A49
:10172000F80180830E94630A188609C08A8181506B
:101730008A838A81882309F0AFCFF1E0F887888512
:1017400028960FB6F894DEBF0FBECDBFCF91DF91C4
:101750001F910F910895DF93CF9300D00F92CDB7D3
:10176000DEB789838981282F30E03B832A838A81F1
:101770009B818130910569F12A813B8122303105BD
:1017800009F469C08A819B81009709F085C0A3E4B0
:10179000B0E0E3E4F0E08089806450968C93A3E4A9
:1017A000B0E0E3E4F0E08089886050968C93A3E495
:1017B000B0E0E3E4F0E08089806150968C93A3E48C
:1017C000B0E0E3E4F0E08089806250968C9350971B
:1017D00063C0A3E4B0E0E3E4F0E084858E7F1C9670
:1017E0008C93A3E4B0E0E3E4F0E0848582601C968F
:1017F0008C93A3E4B0E0E3E4F0E0838588601B967B
:101800008C93A3E4B0E0E3E4F0E0838580611B9671
:101810008C93A3E4B0E0E3E4F0E084858F7B1C9636
:101820008C93A3E4B0E0E3E4F0E0848580681C9648
:101830008C93A3E4B0E0E3E4F0E084858F7E1C9613
:101840008C93A3E4B0E0E3E4F0E084858F7D1C9604
:101850008C931C9721C0A3E4B0E0E3E4F0E0828124
:10186000806412968C93A3E4B0E0E3E4F0E082811C
:10187000877F12968C93A3E4B0E0E3E4F0E08281EA
:10188000806112968C93A3E4B0E0E3E4F0E08281FF
:10189000806212968C9312970F900F900F90CF91B9
:1018A000DF910895DF93CF93CDB7DEB72A970FB6B8
:1018B000F894DEBF0FBECDBF89836A838981282F4C
:1018C00030E03A87298789859A858130910509F426
:1018D0001BC129853A852230310509F425C2898545
:1018E0009A85009709F029C38A81282F30E038872C
:1018F0002F838F8198858430910509F483C02F81CF
:101900003885253031058CF48F819885813091059B
:1019100009F444C02F8138852230310509F458C0BC
:101920008F819885009701F108C32F813885273072
:10193000310509F49BC08F819885883091053CF46E
:101940002F8138852630310509F476C0F6C28F81A3
:1019500098858830910509F4A3C02F8138852930F6
:10196000310509F4B7C0E9C2A3E4B0E0E3E4F0E074
:1019700080898E7F50968C93A3E4B0E0E3E4F0E09E
:1019800080898D7F50968C93A3E4B0E0E3E4F0E08F
:1019900080898B7F50968C935097CFC2A3E4B0E0A0
:1019A000E3E4F0E08089816050968C93A3E4B0E09A
:1019B000E3E4F0E080898D7F50968C93A3E4B0E05F
:1019C000E3E4F0E080898B7F50968C935097B5C20A
:1019D000A3E4B0E0E3E4F0E080898E7F50968C933E
:1019E000A3E4B0E0E3E4F0E08089826050968C9359
:1019F000A3E4B0E0E3E4F0E080898B7F50968C9321
:101A000050979BC2A3E4B0E0E3E4F0E080898160FA
:101A100050968C93A3E4B0E0E3E4F0E08089826028
:101A200050968C93A3E4B0E0E3E4F0E080898B7FF0
:101A300050968C93509781C2A3E4B0E0E3E4F0E0C9
:101A400080898E7F50968C93A3E4B0E0E3E4F0E0CD
:101A500080898D7F50968C93A3E4B0E0E3E4F0E0BE
:101A60008089846050968C93509767C2A3E4B0E05D
:101A7000E3E4F0E08089816050968C93A3E4B0E0C9
:101A8000E3E4F0E080898D7F50968C93A3E4B0E08E
:101A9000E3E4F0E08089846050968C9350974DC2C7
:101AA000A3E4B0E0E3E4F0E080898E7F50968C936D
:101AB000A3E4B0E0E3E4F0E08089826050968C9388
:101AC000A3E4B0E0E3E4F0E08089846050968C9376
:101AD000509733C2A3E4B0E0E3E4F0E08089816092
:101AE00050968C93A3E4B0E0E3E4F0E08089826058
:101AF00050968C93A3E4B0E0E3E4F0E08089846046
:101B000050968C93509719C28A81282F30E03E83DB
:101B10002D838D819E818430910509F483C02D81B0
:101B20003E81253031058CF48D819E818130910577
:101B300009F444C02D813E812230310509F458C09A
:101B40008D819E81009701F1F8C12D813E81273062
:101B5000310509F49BC08D819E81883091053CF44C
:101B60002D813E812630310509F476C0E6C18D8194
:101B70009E818830910509F4A3C02D813E812930D2
:101B8000310509F4B7C0D9C1A3E4B0E0E3E4F0E063
:101B900083858E7F1B968C93A3E4B0E0E3E4F0E0B2
:101BA00083858D7F1B968C93A3E4B0E0E3E4F0E0A3
:101BB00083858B7F1B968C931B97BFC1A3E4B0E0FA
:101BC000E3E4F0E0838581601B968C93A3E4B0E0AE
:101BD000E3E4F0E083858D7F1B968C93A3E4B0E073
:101BE000E3E4F0E083858B7F1B968C931B97A5C164
:101BF000A3E4B0E0E3E4F0E083858E7F1B968C9352
:101C0000A3E4B0E0E3E4F0E0838582601B968C936C
:101C1000A3E4B0E0E3E4F0E083858B7F1B968C9334
:101C20001B978BC1A3E4B0E0E3E4F0E0838581601F
:101C30001B968C93A3E4B0E0E3E4F0E0838582603C
:101C40001B968C93A3E4B0E0E3E4F0E083858B7F04
:101C50001B968C931B9771C1A3E4B0E0E3E4F0E022
:101C600083858E7F1B968C93A3E4B0E0E3E4F0E0E1
:101C700083858D7F1B968C93A3E4B0E0E3E4F0E0D2
:101C8000838584601B968C931B9757C1A3E4B0E0B7
:101C9000E3E4F0E0838581601B968C93A3E4B0E0DD
:101CA000E3E4F0E083858D7F1B968C93A3E4B0E0A2
:101CB000E3E4F0E0838584601B968C931B973DC121
:101CC000A3E4B0E0E3E4F0E083858E7F1B968C9381
:101CD000A3E4B0E0E3E4F0E0838582601B968C939C
:101CE000A3E4B0E0E3E4F0E0838584601B968C938A
:101CF0001B9723C1A3E4B0E0E3E4F0E083858160B7
:101D00001B968C93A3E4B0E0E3E4F0E0838582606B
:101D10001B968C93A3E4B0E0E3E4F0E08385846059
:101D20001B968C931B9709C18A81282F30E03C8336
:101D30002B838B819C818330910509F47DC02B819D
:101D40003C81243031058CF48B819C81813091055C
:101D500009F43EC02B813C81223031050CF052C089
:101D60008B819C810097D1F0E8C02B813C8125308C
:101D7000310509F495C08B819C81853091050CF467
:101D800075C02B813C812630310509F4A3C08B81BD
:101D90009C818730910509F4B7C0CFC0A3E4B0E0BF
:101DA000E3E4F0E082818E7F12968C93A3E4B0E0AE
:101DB000E3E4F0E082818D7F12968C93A3E4B0E09F
:101DC000E3E4F0E082818B7F12968C931297B5C08A
:101DD000A3E4B0E0E3E4F0E08281816012968C93AA
:101DE000A3E4B0E0E3E4F0E082818D7F12968C936F
:101DF000A3E4B0E0E3E4F0E082818B7F12968C9361
:101E000012979BC0A3E4B0E0E3E4F0E082818E7F10
:101E100012968C93A3E4B0E0E3E4F0E08281826068
:101E200012968C93A3E4B0E0E3E4F0E082818B7F30
:101E300012968C93129781C0A3E4B0E0E3E4F0E043
:101E40008281816012968C93A3E4B0E0E3E4F0E039
:101E50008281826012968C93A3E4B0E0E3E4F0E028
:101E600082818B7F12968C93129767C0A3E4B0E0B7
:101E7000E3E4F0E082818E7F12968C93A3E4B0E0DD
:101E8000E3E4F0E082818D7F12968C93A3E4B0E0CE
:101E9000E3E4F0E08281846012968C9312974DC047
:101EA000A3E4B0E0E3E4F0E08281816012968C93D9
:101EB000A3E4B0E0E3E4F0E082818D7F12968C939E
:101EC000A3E4B0E0E3E4F0E08281846012968C93B6
:101ED000129733C0A3E4B0E0E3E4F0E082818E7FA8
:101EE00012968C93A3E4B0E0E3E4F0E08281826098
:101EF00012968C93A3E4B0E0E3E4F0E08281846086
:101F000012968C93129719C0A3E4B0E0E3E4F0E0DA
:101F10008281816012968C93A3E4B0E0E3E4F0E068
:101F20008281826012968C93A3E4B0E0E3E4F0E057
:101F30008281846012968C9312972A960FB6F89439
:101F4000DEBF0FBECDBFCF91DF910895DF93CF935A
:101F500000D00F92CDB7DEB789838981282F30E07A
:101F60003B832A838A819B818130910521F12A81DB
:101F70003B8122303105C9F18A819B81009709F0AC
:101F80004DC0A3E4B0E0E3E4F0E080898E7F50969A
:101F90008C93A3E4B0E0E3E4F0E080898D7F509679
:101FA0008C93A3E4B0E0E3E4F0E080898B7F50966B
:101FB0008C93509733C0A3E4B0E0E3E4F0E0838572
:101FC0008E7F1B968C93A3E4B0E0E3E4F0E083857E
:101FD0008D7F1B968C93A3E4B0E0E3E4F0E083856F
:101FE0008B7F1B968C931B9719C0A3E4B0E0E3E4AE
:101FF000F0E082818E7F12968C93A3E4B0E0E3E45C
:10200000F0E082818D7F12968C93A3E4B0E0E3E44C
:10201000F0E082818B7F12968C9312970F900F9035
:102020000F90CF91DF910895DF93CF9300D00F925F
:10203000CDB7DEB789838981282F30E03B832A839F
:102040008A819B818330910509F44AC02A813B81B2
:10205000243031057CF48A819B818130910561F1C6
:102060002A813B81223031058CF58A819B81009742
:10207000C9F066C02A813B812530310509F444C08E
:102080008A819B8185309105ACF12A813B81263084
:10209000310509F443C08A819B818730910509F499
:1020A00047C04EC0A3E4B0E0E3E4F0E0868981607D
:1020B00056968C93569744C0A3E4B0E0E3E4F0E076
:1020C0008689826056968C9356973AC0A3E4B0E016
:1020D000E3E4F0E08689846056968C93569730C08E
:1020E000A3E4B0E0E3E4F0E08689886056968C9340
:1020F000569726C0A3E4B0E0E3E4F0E0868980616F
:1021000056968C9356971CC0A3E4B0E0E3E4F0E04D
:102110008689806256968C93569712C0A3E4B0E0ED
:10212000E3E4F0E08689806456968C93569708C065
:10213000A3E4B0E0E3E4F0E08689806856968C93EF
:10214000A3E4B0E0E3E4F0E0848D80685C968C93D7
:102150005C970F900F900F90CF91DF910895DF93D0
:10216000CF9300D00F92CDB7DEB789838981282F16
:1021700030E03B832A838A819B818330910509F477
:102180004AC02A813B81243031057CF48A819B81BD
:102190008130910561F12A813B81223031058CF536
:1021A0008A819B810097C9F067C02A813B812530D5
:1021B000310509F444C08A819B8185309105ACF1D9
:1021C0002A813B812630310509F443C08A819B81F5
:1021D0008730910509F447C04FC0A3E4B0E0E3E4C1
:1021E000F0E086898E7F56968C93569745C0A3E47F
:1021F000B0E0E3E4F0E086898D7F56968C935697A5
:102200003BC0A3E4B0E0E3E4F0E086898B7F569620
:102210008C93569731C0A3E4B0E0E3E4F0E0868904
:10222000877F56968C93569727C0A3E4B0E0E3E4EB
:10223000F0E086898F7E56968C9356971DC0A3E456
:10224000B0E0E3E4F0E086898F7D56968C93569754
:1022500013C0A3E4B0E0E3E4F0E086898F7B5696F8
:102260008C93569709C0A3E4B0E0E3E4F0E08689DC
:102270008F7756968C9356970F900F900F90CF9123
:10228000DF910895DF93CF9300D000D00F92CDB7A8
:10229000DEB789837B836A838981282F30E03D8381
:1022A0002C838C819D818330910509F43EC02C8163
:1022B0003D81243031057CF48C819D8181309105F4
:1022C00031F12C813D812230310544F58C819D8195
:1022D0000097B1F04CC02C813D812530310599F13A
:1022E0008C819D81853091053CF12C813D8126308A
:1022F000310581F18C819D818730910591F137C045
:102300008A819B81909341028093400230C08A81F0
:102310009B8190933F0280933E0229C08A819B81DA
:1023200090933D0280933C0222C08A819B819093CE
:102330003B0280933A021BC08A819B8190933902B1
:102340008093380214C08A819B81909337028093D6
:1023500036020DC08A819B819093350280933402AE
:1023600006C08A819B8190933302809332020F9042
:102370000F900F900F900F90CF91DF910895DF9302
:10238000CF9300D000D00F92CDB7DEB7898389817B
:10239000282F30E03D832C838C819D8181309105F5
:1023A00089F02C813D812230310599F08C819D810D
:1023B0000097B9F4E3E4F0E08785282F30E03B8311
:1023C0002A8311C0E3E4F0E0818592859B838A83B0
:1023D0000AC0E3E4F0E08181282F30E03B832A83C8
:1023E00002C01B821A828A819B810F900F900F90EE
:1023F0000F900F90CF91DF910895DF93CF9300D08E
:1024000000D00F92CDB7DEB789837B836A83898141
:10241000282F30E03D832C838C819D818230910573
:1024200031F12C813D812330310554F48C819D8123
:10243000009789F02C813D812130310589F029C038
:102440008C819D818330910501F12C813D81243067
:102450003105A1F01EC0E3E4F0E08A81818F19C04C
:10246000E3E4F0E08A819B819683858312C0E3E4F4
:10247000F0E08A819B81908787830BC0E3E4F0E0E2
:102480008A819B819483838304C0E3E4F0E08A81A2
:1024900080830F900F900F900F900F90CF91DF914E
:1024A0000895DF93CF9300D000D00F92CDB7DEB761
:1024B00089837B836A838981282F30E03D832C8345
:1024C0008C819D818130910571F02C813D8122307C
:1024D000310581F08C819D81009781F4E3E4F0E087
:1024E0008A8187870BC0E3E4F0E08A819B81928731
:1024F000818704C0E3E4F0E08A8181830F900F902C
:102500000F900F900F90CF91DF910895DF93CF93AD
:10251000CDB7DEB763970FB6F894DEBF0FBECDBF61
:102520008B874C875D876E877F87398B288B80E808
:1025300090E0A0E0B0E08F839887A987BA871E82D9
:102540001D8219821A821B821C828B85282F30E003
:102550003B8B2A8B8A899B898130910509F482C043
:102560002A893B892230310509F4FEC08A899B897A
:10257000009709F06FC18F819885A985BA85BA2F18
:10258000A92F982F882789839A83AB83BC838C8556
:102590009D85AE85BF8528EE33E040E050E0BC016C
:1025A000CD010E941236DC01CB0129813A814B8199
:1025B0005C81BC01CD010E943136DA01C9018093F2
:1025C0004C0290934D02A0934E02B0934F028C8523
:1025D0009D85AE85BF8528EE33E040E050E0BC012C
:1025E000CD010E941236DC01CB0129813A814B8159
:1025F0005C81BC01CD010E943136DC01CB019E83A0
:102600008D838D819E81CC01A0E0B0E02F81388543
:1026100049855A85BC01CD010E943136DA01C901D4
:1026200081958093480280E00E94AB0B8091480224
:10263000282F30E080E0B9010E94511280E00E9412
:10264000141088899989909343028093420225EE61
:1026500034E180E0B9010E94421180E067E00E940D
:10266000520CF8C081E090E0A0E0B0E08F83988742
:10267000A987BA878F819885A985BA85DC019927B2
:10268000882789839A83AB83BC838C859D85AE859F
:10269000BF8528EE33E040E050E0BC01CD010E9450
:1026A0001236DC01CB0129813A814B815C81BC016E
:1026B000CD010E943136DA01C90180935002909316
:1026C0005102A0935202B09353028C859D85AE8532
:1026D000BF8528EE33E040E050E0BC01CD010E9410
:1026E0001236DC01CB0129813A814B815C81BC012E
:1026F000CD010E943136DC01CB019E838D838D811B
:102700009E81CC01A0E0B0E02F81388549855A85B3
:10271000BC01CD010E943136DA01C9019095819545
:102720009F4F90934A028093490281E00E94AB0B35
:102730002091490230914A0281E0B9010E94511270
:1027400082E00E94141088899989909345028093B1
:10275000440226E335E182E0B9010E94421181E0A2
:1027600062E00E94520C76C08F819885A985BA8557
:10277000BA2FA92F982F882789839A83AB83BC838C
:102780008C859D85AE85BF8528EE33E040E050E026
:10279000BC01CD010E941236DC01CB0129813A81B6
:1027A0004B815C81BC01CD010E943136DA01C90147
:1027B0008093540290935502A0935602B09357020F
:1027C0008C859D85AE85BF8528EE33E040E050E0E6
:1027D000BC01CD010E941236DC01CB0129813A8176
:1027E0004B815C81BC01CD010E943136DC01CB0103
:1027F0009E838D838D819E81CC01A0E0B0E02F81EE
:10280000388549855A85BC01CD010E943136DA01EF
:10281000C901819580934B0282E00E94AB0B8091AD
:102820004B02282F30E082E0B9010E94511286E06D
:102830000E941410888999899093470280934602D8
:1028400027E835E186E0B9010E94421182E067E0A5
:102850000E94520C63960FB6F894DEBF0FBECDBF38
:10286000CF91DF910895DF93CF93CDB7DEB7279750
:102870000FB6F894DEBF0FBECDBF89834A835B835A
:102880006C837D838981282F30E03F832E838E8166
:102890009F818130910509F48FC02E813F812230C4
:1028A00031052CF48E819F81009769F085C02E81BF
:1028B0003F812230310599F18E819F8183309105CE
:1028C00009F44FC079C06A817B818C819D8120E0B1
:1028D00030E040E853E40E941F02DC01CB01BC0160
:1028E000CD0120E030E048EC52EC0E941903DC01FD
:1028F000CB01BC01CD0120E030E040E853E40E9470
:10290000F201DC01CB01BC01CD010E944900DC01D8
:10291000CB019C0180E0B9010E94FD114DC06A818C
:102920007B818C819D8120E030E44CE956E40E945B
:102930001F02DC01CB01BC01CD0120E030E048ECFE
:1029400052E40E941903DC01CB01BC01CD010E94BD
:102950004900DC01CB019C0182E0B9010E94FD111C
:102960002BC06A817B818C819D8120E030E040E832
:1029700053E40E941F02DC01CB01BC01CD0120E029
:1029800030E048EC52EC0E941903DC01CB01BC01A1
:10299000CD0120E030E040E853E40E94F201DC0188
:1029A000CB01BC01CD010E944900DC01CB019C019F
:1029B00083E0B9010E94FD1127960FB6F894DEBF9F
:1029C0000FBECDBFCF91DF910895DF93CF93CDB7E9
:1029D000DEB780914C0290914D02A0914E02B091D1
:1029E0004F029C01AD012F5F3F4F4F4F5F4F8091D2
:1029F000580290915902A0915A02B0915B02281797
:102A000039074A075B07E1F4809142029091430243
:102A1000009769F080914802282F30E080E0B901EA
:102A20000E945112E0914202F091430209951092E6
:102A300058021092590210925A0210925B0213C06F
:102A40008091580290915902A0915A02B0915B0274
:102A50000196A11DB11D8093580290935902A09335
:102A60005A02B0935B02CF91DF910895DF93CF9329
:102A7000CDB7DEB78091500290915102A0915202E1
:102A8000B09153029C01AD012F5F3F4F4F4F5F4FFD
:102A900080915C0290915D02A0915E02B0915F0214
:102AA000281739074A075B07E1F4809144029091A7
:102AB0004502009769F02091490230914A0281E075
:102AC000B9010E945112E0914402F091450209952A
:102AD00010925C0210925D0210925E0210925F02F0
:102AE00013C080915C0290915D02A0915E02B09152
:102AF0005F020196A11DB11D80935C0290935D025F
:102B0000A0935E02B0935F02CF91DF910895DF93AF
:102B1000CF93CDB7DEB78091540290915502A0912A
:102B20005602B09157029C01AD012F5F3F4F4F4FAE
:102B30005F4F8091600290916102A0916202B0911A
:102B40006302281739074A075B07E1F480914602C0
:102B500090914702009769F080914B02282F30E056
:102B600082E0B9010E945112E0914602F0914702C1
:102B70000995109260021092610210926202109206
:102B8000630213C08091600290916102A091620281
:102B9000B09163020196A11DB11D809360029093D4
:102BA0006102A0936202B0936302CF91DF91089516
:102BB0001F920F920FB60F9211242F933F934F93B2
:102BC0005F936F937F938F939F93AF93BF93EF9395
:102BD000FF93DF93CF93CDB7DEB780913202909110
:102BE0003302009729F0E0913202F0913302099507
:102BF000CF91DF91FF91EF91BF91AF919F918F9115
:102C00007F916F915F914F913F912F910F900FBEE8
:102C10000F901F9018951F920F920FB60F921124CC
:102C20002F933F934F935F936F937F938F939F93D4
:102C3000AF93BF93EF93FF93DF93CF93CDB7DEB7FF
:102C40008091340290913502009729F0E09134028E
:102C5000F09135020995CF91DF91FF91EF91BF91EE
:102C6000AF919F918F917F916F915F914F913F9124
:102C70002F910F900FBE0F901F9018951F920F92DB
:102C80000FB60F9211242F933F934F935F936F933F
:102C90007F938F939F93AF93BF93EF93FF93DF93B4
:102CA000CF93CDB7DEB7809136029091370200976F
:102CB00029F0E0913602F09137020995CF91DF912A
:102CC000FF91EF91BF91AF919F918F917F916F9104
:102CD0005F914F913F912F910F900FBE0F901F90DA
:102CE00018951F920F920FB60F9211242F933F93B6
:102CF0004F935F936F937F938F939F93AF93BF9304
:102D0000EF93FF93DF93CF93CDB7DEB78091380277
:102D100090913902009729F0E0913802F091390240
:102D20000995CF91DF91FF91EF91BF91AF919F9165
:102D30008F917F916F915F914F913F912F910F9064
:102D40000FBE0F901F9018951F920F920FB60F9203
:102D500011242F933F934F935F936F937F938F93A0
:102D60009F93AF93BF93EF93FF93DF93CF93CDB731
:102D7000DEB780913A0290913B02009729F0E091F2
:102D80003A02F0913B020995CF91DF91FF91EF91CB
:102D9000BF91AF919F918F917F916F915F914F9173
:102DA0003F912F910F900FBE0F901F9018951F927B
:102DB0000F920FB60F9211242F933F934F935F936F
:102DC0006F937F938F939F93AF93BF93EF93FF93F3
:102DD000DF93CF93CDB7DEB780913C0290913D0257
:102DE000009729F0E0913C02F0913D020995CF91C6
:102DF000DF91FF91EF91BF91AF919F918F917F9163
:102E00006F915F914F913F912F910F900FBE0F9057
:102E10001F9018951F920F920FB60F9211242F93A7
:102E20003F934F935F936F937F938F939F93AF9352
:102E3000BF93EF93FF93DF93CF93CDB7DEB780912E
:102E40003E0290913F02009729F0E0913E02F091FE
:102E50003F020995CF91DF91FF91EF91BF91AF9123
:102E60009F918F917F916F915F914F913F912F91A2
:102E70000F900FBE0F901F9018951F920F920FB6D4
:102E80000F9211242F933F934F935F936F937F93F0
:102E90008F939F93AF93BF93EF93FF93DF93CF9362
:102EA000CDB7DEB78091400290914102009729F0A2
:102EB000E0914002F09141020995CF91DF91FF919D
:102EC000EF91BF91AF919F918F917F916F915F91A2
:102ED0004F913F912F910F900FBE0F901F9018951B
:102EE000DF93CF9300D00F92CDB7DEB78983ADE2E9
:102EF000B0E0EDE2F0E080818F7D8C93ADE2B0E058
:102F0000EDE2F0E08081877F8C93ADE2B0E0EDE20E
:102F1000F0E0808184608C93ADE2B0E0EDE2F0E01F
:102F2000808180618C938981282F30E03B832A83C4
:102F30008A819B818330910509F46AC02A813B8193
:102F40002430310584F48A819B8181309105A1F17F
:102F50002A813B81223031050CF044C08A819B815B
:102F60000097A1F0ACC02A813B812530310509F4DE
:102F70007BC08A819B81853091050CF45FC02A81DA
:102F80003B812630310509F485C099C0ADE2B0E03F
:102F9000EDE2F0E080818E7F8C93ADE2B0E0EDE277
:102FA000F0E080818D7F8C93ADE2B0E0EDE2F0E067
:102FB000808181608C9383C0ADE2B0E0EDE2F0E00F
:102FC00080818E7F8C93ADE2B0E0EDE2F0E0808115
:102FD0008D7F8C93ADE2B0E0EDE2F0E080818E7FFA
:102FE0008C936DC0ADE2B0E0EDE2F0E080818160F5
:102FF0008C93ADE2B0E0EDE2F0E080818D7F8C93C8
:10300000ADE2B0E0EDE2F0E0808181608C9357C0EA
:10301000ADE2B0E0EDE2F0E0808181608C93ADE262
:10302000B0E0EDE2F0E080818D7F8C93ADE2B0E026
:10303000EDE2F0E080818E7F8C9341C0ADE2B0E0A4
:10304000EDE2F0E080818E7F8C93ADE2B0E0EDE2C6
:10305000F0E0808182608C93ADE2B0E0EDE2F0E0E0
:10306000808181608C932BC0ADE2B0E0EDE2F0E0B6
:1030700080818E7F8C93ADE2B0E0EDE2F0E0808164
:1030800082608C93ADE2B0E0EDE2F0E080818E7F73
:103090008C9315C0ADE2B0E0EDE2F0E0808181609C
:1030A0008C93ADE2B0E0EDE2F0E0808182608C9341
:1030B000ADE2B0E0EDE2F0E080818E7F8C93ADE296
:1030C000B0E0EDE2F0E0808180648C930F900F908F
:1030D0000F90CF91DF910895DF93CF930F92CDB7EB
:1030E000DEB78983EDE2F0E089818283EDE2F0E0F2
:1030F00081818823DCF7EDE2F0E082810F90CF91AF
:10310000DF910895DF93CF93CDB7DEB72A970FB63F
:10311000F894DEBF0FBECDBF89836A838981282FD3
:1031200030E03A87298789859A858130910509F4AD
:1031300066C029853A852230310509F4BBC08985EE
:103140009A85009709F0D4C08A81282F30E038870B
:103150002F838F8198858130910521F12F813885CA
:10316000223031052CF48F819885009761F0C0C022
:103170002F8138852230310521F18F819885833068
:10318000910571F1B5C0A5E5B0E0E5E5F0E080811D
:1031900082608C93A5E5B0E0E5E5F0E08081816098
:1031A0008C93A6C0A5E5B0E0E5E5F0E08081826003
:1031B0008C93A5E5B0E0E5E5F0E080818E7F8C930F
:1031C00097C0A5E5B0E0E5E5F0E080818D7F8C93C8
:1031D000A5E5B0E0E5E5F0E080818E7F8C9388C0C6
:1031E000A5E5B0E0E5E5F0E080818D7F8C93A5E575
:1031F000B0E0E5E5F0E0808181608C9379C08A8160
:10320000282F30E03E832D838D819E818130910572
:1032100021F12D813E81223031052CF48D819E815A
:10322000009761F065C02D813E812230310521F18A
:103230008D819E818330910571F15AC0A5E5B0E082
:10324000E5E5F0E0808188608C93A5E5B0E0E5E5F8
:10325000F0E0808184608C934BC0A5E5B0E0E5E5AB
:10326000F0E0808188608C93A5E5B0E0E5E5F0E0D2
:1032700080818B7F8C933CC0A5E5B0E0E5E5F0E074
:103280008081877F8C93A5E5B0E0E5E5F0E0808163
:103290008B7F8C932DC0A5E5B0E0E5E5F0E0808163
:1032A000877F8C93A5E5B0E0E5E5F0E08081846060
:1032B0008C931EC08A81282F30E03C832B838B8126
:1032C0009C81009731F02B813C812130310549F000
:1032D0000FC0A4E5B0E0E4E5F0E0808180648C9369
:1032E00007C0A4E5B0E0E4E5F0E080818F7B8C933B
:1032F0002A960FB6F894DEBF0FBECDBFCF91DF91F7
:103300000895DF93CF9300D00F92CDB7DEB78983B6
:103310008981282F30E03B832A838A819B818130F9
:10332000910589F02A813B8122303105A1F08A8103
:103330009B810097B9F4ABE5B0E0EBE5F0E080816C
:1033400080648C930FC0ABE5B0E0EBE5F0E08081EA
:1033500080688C9307C0ABE5B0E0EBE5F0E08081DE
:1033600080628C93AFE5B0E0EFE5F0E080818068AB
:103370008C930F900F900F90CF91DF910895DF9372
:10338000CF9300D00F92CDB7DEB789838981282FE4
:1033900030E03B832A838A819B818130910589F0CB
:1033A0002A813B8122303105A1F08A819B810097DF
:1033B000B9F4ABE5B0E0EBE5F0E080818F7B8C9376
:1033C0000FC0ABE5B0E0EBE5F0E080818F778C9348
:1033D00007C0ABE5B0E0EBE5F0E080818F7D8C933A
:1033E0000F900F900F90CF91DF910895DF93CF93BF
:1033F00000D000D00F92CDB7DEB789837B836A837C
:103400008981282F30E03D832C838C819D81813000
:10341000910581F02C813D812230310591F08C8124
:103420009D810097A1F48A819B819093650280938E
:1034300064020DC08A819B8190936702809366022B
:1034400006C08A819B8190936902809368020F90E5
:103450000F900F900F900F90CF91DF9108951F92D2
:103460000F920FB60F9211242F933F934F935F93B8
:103470006F937F938F939F93AF93BF93EF93FF933C
:10348000DF93CF93CDB7DEB7809164029091650250
:10349000009729F0E0916402F09165020995CF91BF
:1034A000DF91FF91EF91BF91AF919F918F917F91AC
:1034B0006F915F914F913F912F910F900FBE0F90A1
:1034C0001F9018951F920F920FB60F9211242F93F1
:1034D0003F934F935F936F937F938F939F93AF939C
:1034E000BF93EF93FF93DF93CF93CDB7DEB7809178
:1034F000660290916702009729F0E0916602F091D0
:1035000067020995CF91DF91FF91EF91BF91AF9144
:103510009F918F917F916F915F914F913F912F91EB
:103520000F900FBE0F901F9018951F920F920FB61D
:103530000F9211242F933F934F935F936F937F9339
:103540008F939F93AF93BF93EF93FF93DF93CF93AB
:10355000CDB7DEB78091680290916902009729F09B
:10356000E0916802F09169020995CF91DF91FF9196
:10357000EF91BF91AF919F918F917F916F915F91EB
:103580004F913F912F910F900FBE0F901F90189564
:10359000DF93CF9300D000D0CDB7DEB79A83898375
:1035A0006B834C83E981FA818181982F8B8180958F
:1035B0008923E981FA818183E981FA8121819B81D3
:1035C0008C818923822BE981FA8181830F900F906E
:1035D0000F900F90CF91DF910895DF93CF9300D09C
:1035E00000D0CDB7DEB79A8389836B834C83E981A2
:1035F000FA818281982F8B8180958923E981FA81D4
:103600008283E981FA8122819B818C818923822BAB
:10361000E981FA8182830F900F900F900F90CF91E4
:10362000DF910895DF93CF9300D00F92CDB7DEB72F
:103630009A8389836B83E981FA8190818B818923C5
:103640000F900F900F90CF91DF910895DF93CF935C
:1036500000D00F92CDB7DEB79A8389836B83E9815F
:10366000FA8192818B818927E981FA8182830F9087
:103670000F900F90CF91DF910895DF93CF9300D0FB
:103680000F92CDB7DEB79A8389836B83E981FA8184
:103690008B8182830F900F900F90CF91DF910895CF
:1036A000DF93CF93CDB7DEB7A4E2B0E0E4E2F0E081
:1036B00083818F7713968C93A4E2B0E0E4E2F0E08C
:1036C0008381806413968C93A4E2B0E0E4E2F0E09E
:1036D0008281816012968C93A4E2B0E0E4E2F0E093
:1036E0008281826012968C93A4E2B0E0E4E2F0E082
:1036F00082818B7F12968C93A4E2B0E0E4E2F0E04A
:1037000083818F7D13968C931397CF91DF910895CA
:10371000DF93CF93CDB7DEB7A4E2B0E0E4E2F0E010
:103720008281806812968C931297CF91DF910895D1
:10373000DF93CF93CDB7DEB7A4E2B0E0E4E2F0E0F0
:1037400082818F7712968C931297CF91DF91089593
:10375000DF93CF9300D00F92CDB7DEB789838981F5
:10376000282F30E03B832A838A819B818430910516
:1037700009F4EFC02A813B8125303105ECF48A81C0
:103780009B818130910509F466C02A813B812230FA
:1037900031052CF48A819B81009799F1D4C12A814B
:1037A0003B812230310509F480C08A819B818330BE
:1037B000910509F4A4C0C7C12A813B812730310596
:1037C00009F445C18A819B81883091056CF42A8176
:1037D0003B812530310509F4E6C08A819B81863022
:1037E000910509F40AC1AFC12A813B812830310516
:1037F00009F457C18A819B818930910509F47BC105
:10380000A2C1A4E2B0E0E4E2F0E083818E7F1396EF
:103810008C93A4E2B0E0E4E2F0E083818D7F139624
:103820008C93A4E2B0E0E4E2F0E083818B7F139616
:103830008C93A4E2B0E0E4E2F0E08381877F13960A
:103840008C93A4E2B0E0E4E2F0E083818F7E1396F3
:103850008C93139778C1A4E2B0E0E4E2F0E08381B6
:10386000816013968C93A4E2B0E0E4E2F0E08381FF
:103870008D7F13968C93A4E2B0E0E4E2F0E08381C4
:103880008B7F13968C93A4E2B0E0E4E2F0E08381B6
:10389000877F13968C93A4E2B0E0E4E2F0E08381AA
:1038A0008F7E13968C9313974EC1A4E2B0E0E4E2AE
:1038B000F0E083818E7F13968C93A4E2B0E0E4E283
:1038C000F0E08381826013968C93A4E2B0E0E4E29E
:1038D000F0E083818B7F13968C93A4E2B0E0E4E266
:1038E000F0E08381877F13968C93A4E2B0E0E4E25A
:1038F000F0E083818F7E13968C93139724C1A4E20A
:10390000B0E0E4E2F0E08381816013968C93A4E25E
:10391000B0E0E4E2F0E08381826013968C93A4E24D
:10392000B0E0E4E2F0E083818B7F13968C93A4E215
:10393000B0E0E4E2F0E08381877F13968C93A4E209
:10394000B0E0E4E2F0E083818F7E13968C931397CE
:10395000FAC0A4E2B0E0E4E2F0E083818E7F139647
:103960008C93A4E2B0E0E4E2F0E083818D7F1396D3
:103970008C93A4E2B0E0E4E2F0E0838184601396EB
:103980008C93A4E2B0E0E4E2F0E08381877F1396B9
:103990008C93A4E2B0E0E4E2F0E083818F7E1396A2
:1039A0008C931397D0C0A4E2B0E0E4E2F0E083810E
:1039B000816013968C93A4E2B0E0E4E2F0E08381AE
:1039C0008D7F13968C93A4E2B0E0E4E2F0E0838173
:1039D000846013968C93A4E2B0E0E4E2F0E083818B
:1039E000877F13968C93A4E2B0E0E4E2F0E0838159
:1039F0008F7E13968C931397A6C0A4E2B0E0E4E206
:103A0000F0E083818E7F13968C93A4E2B0E0E4E231
:103A1000F0E08381826013968C93A4E2B0E0E4E24C
:103A2000F0E08381846013968C93A4E2B0E0E4E23A
:103A3000F0E08381877F13968C93A4E2B0E0E4E208
:103A4000F0E083818F7E13968C9313977CC0A4E261
:103A5000B0E0E4E2F0E08381816013968C93A4E20D
:103A6000B0E0E4E2F0E08381826013968C93A4E2FC
:103A7000B0E0E4E2F0E08381846013968C93A4E2EA
:103A8000B0E0E4E2F0E08381877F13968C93A4E2B8
:103A9000B0E0E4E2F0E083818F7E13968C9313977D
:103AA00052C0A4E2B0E0E4E2F0E0838181601396CA
:103AB0008C93A4E2B0E0E4E2F0E083818D7F139682
:103AC0008C93A4E2B0E0E4E2F0E083818B7F139674
:103AD0008C93A4E2B0E0E4E2F0E083818860139686
:103AE0008C93A4E2B0E0E4E2F0E08381806113967D
:103AF0008C93139728C0A4E2B0E0E4E2F0E0838165
:103B00008E7F13968C93A4E2B0E0E4E2F0E0838130
:103B1000826013968C93A4E2B0E0E4E2F0E083814B
:103B20008B7F13968C93A4E2B0E0E4E2F0E0838113
:103B3000877F13968C93A4E2B0E0E4E2F0E0838107
:103B4000806113968C93A4E2B0E0E4E2F0E082811D
:103B5000806412968C931297E4E2F0E08281829561
:103B60008F70882F90E0817090700097A9F3A4E285
:103B7000B0E0E4E2F0E08281806112968C931297CB
:103B8000E4E2F0E0808191810F900F900F90CF914F
:103B9000DF910895DF93CF93CDB7DEB781E00E9428
:103BA000AB0B84E060E27EE40E94FD1181E062E004
:103BB0000E94520CA1E3B0E0E1E3F0E0808180627A
:103BC0008C93CF91DF910895DF93CF9300D000D0F5
:103BD0000F92CDB7DEB78D838D81882F90E0A0E066
:103BE000B0E0BC01CD010E940705DC01CB01BC01A6
:103BF000CD0120E030E044E353E40E941903DC01EE
:103C0000CB01BC01CD0120E030E040EA50E40E944D
:103C10001F02DC01CB01BC01CD0120E030E040EA15
:103C200050E40E94F201DC01CB0189839A83AB83CB
:103C3000BC838D81853648F429813A814B815C8132
:103C400082E0BA01A9010E9433140F900F900F90E7
:103C50000F900F90CF91DF910895DF93CF93CDB761
:103C6000DEB7AAE3B0E0EAE3F0E0808181608C9304
:103C7000AAE3B0E0EAE3F0E0808182608C93AAE3FB
:103C8000B0E0EAE3F0E0808184608C93AAE3B0E0E6
:103C9000EAE3F0E0808188608C93CF91DF91089512
:103CA000DF93CF93CDB7DEB761970FB6F894DEBF41
:103CB0000FBECDBF8F878F85282F30E0398B288BA3
:103CC000888999898430910509F487C028893989C0
:103CD0002530310594F4888999898230910509F459
:103CE00042C028893989233031050CF059C08889B0
:103CF000998981309105D1F000C128893989263010
:103D0000310509F4A4C088899989863091050CF49D
:103D100081C0288939892730310509F4B5C08889DF
:103D200099898830910509F4CCC0E7C0ABE3B0E0D5
:103D3000EBE3F0E0808181608C93ABE3B0E0EBE3F8
:103D4000F0E080818D7F8C93ABE3B0E0EBE3F0E0BB
:103D500080818B7F8C93ABE3B0E0EBE3F0E080817C
:103D6000877F8C93CAC0ABE3B0E0EBE3F0E08081E7
:103D700081608C93ABE3B0E0EBE3F0E080818260A4
:103D80008C93ABE3B0E0EBE3F0E080818B7F8C932E
:103D9000ABE3B0E0EBE3F0E08081877F8C93ADC0D4
:103DA000ABE3B0E0EBE3F0E080818E7F8C93ABE39C
:103DB000B0E0EBE3F0E0808182608C93ABE3B0E0B5
:103DC000EBE3F0E080818B7F8C93ABE3B0E0EBE33F
:103DD000F0E08081877F8C9390C0ABE3B0E0EBE3B1
:103DE000F0E080818E7F8C93ABE3B0E0EBE3F0E01A
:103DF000808182608C93ABE3B0E0EBE3F0E0808104
:103E000084608C93ABE3B0E0EBE3F0E08081877FEC
:103E10008C9373C0ABE3B0E0EBE3F0E080818E7F86
:103E20008C93ABE3B0E0EBE3F0E080818D7F8C938B
:103E3000ABE3B0E0EBE3F0E0808184608C93ABE334
:103E4000B0E0EBE3F0E08081877F8C9356C0ABE37A
:103E5000B0E0EBE3F0E080818E7F8C93ABE3B0E0E9
:103E6000EBE3F0E080818D7F8C93ABE3B0E0EBE39C
:103E7000F0E0808184608C93ABE3B0E0EBE3F0E0B2
:103E8000808188608C9339C0ABE3B0E0EBE3F0E075
:103E900080818E7F8C93ABE3B0E0EBE3F0E0808138
:103EA0008D7F8C93ABE3B0E0EBE3F0E080818B7F20
:103EB0008C93ABE3B0E0EBE3F0E0808188608C931F
:103EC0001CC0ABE3B0E0EBE3F0E0808181608C9359
:103ED000ABE3B0E0EBE3F0E080818D7F8C93ABE36C
:103EE000B0E0EBE3F0E080818B7F8C93ABE3B0E05C
:103EF000EBE3F0E0808188608C9380E090E0AAE7BB
:103F0000B4E48B879C87AD87BE876B857C858D8568
:103F10009E8520E030E04AEF54E40E941F02DC015D
:103F2000CB018F839887A987BA876F817885898528
:103F30009A8520E030E040E85FE30E942504882372
:103F40002CF481E090E09E838D833FC06F81788563
:103F500089859A8520E03FEF4FE757E40E94C5032B
:103F600018164CF56B857C858D859E8520E030E0AC
:103F700040E251E40E941F02DC01CB01BC01CD01F3
:103F80000E944900DC01CB019E838D830FC088EC29
:103F900090E09C838B838B819C810197F1F79C83BC
:103FA0008B838D819E8101979E838D838D819E81E0
:103FB000009769F714C06F81788589859A850E947A
:103FC0004900DC01CB019E838D838D819E819A8384
:103FD000898389819A810197F1F79A838983619610
:103FE0000FB6F894DEBF0FBECDBFCF91DF9108951D
:103FF000DF93CF9300D00F92CDB7DEB7898389814D
:10400000282F30E03B832A838A819B81009731F0FF
:104010002A813B812130310521F005C00E943520E5
:1040200002C00E9419200F900F900F90CF91DF9146
:104030000895DF93CF930F92CDB7DEB7198219821F
:104040000DC08981992787FD9095FC01EA5EFD4F9F
:1040500080810E94501E89818F5F8983898184308D
:1040600084F30F90CF91DF910895DF93CF930F9258
:10407000CDB7DEB783E0898383E089830DC0898172
:10408000992787FD9095FC01EA5EFD4F80810E9493
:10409000501E8981815089838981882384F70F90FC
:1040A000CF91DF910895DF93CF93CDB7DEB76D97B2
:1040B0000FB6F894DEBF0FBECDBF8D8FA2E3B0E088
:1040C000E2E3F0E0808180618C93A2E3B0E0E2E380
:1040D000F0E080818F7B8C93A2E3B0E0E2E3F0E03C
:1040E000808188608C93E5E3F0E08D8D808380E0B3
:1040F00090E0A0E8BFE3898F9A8FAB8FBC8F698D6A
:104100007A8D8B8D9C8D20E030E04AEF54E40E9444
:104110001F02DC01CB018D8B9E8BAF8BB88F6D891D
:104120007E898F89988D20E030E040E85FE30E942F
:10413000250488232CF481E090E09C8B8B8B3FC07E
:104140006D897E898F89988D20E03FEF4FE757E496
:104150000E94C50318164CF5698D7A8D8B8D9C8D48
:1041600020E030E040E251E40E941F02DC01CB017C
:10417000BC01CD010E944900DC01CB019C8B8B8BE3
:104180000FC088EC90E09A8B898B89899A89019776
:10419000F1F79A8B898B8B899C8901979C8B8B8BF0
:1041A0008B899C89009769F714C06D897E898F89F6
:1041B000988D0E944900DC01CB019C8B8B8B8B89F5
:1041C0009C89988B8F878F8598890197F1F7988BB9
:1041D0008F87A2E3B0E0E2E3F0E08081877F8C93F9
:1041E00080E090E0A0E8BFE38B879C87AD87BE8727
:1041F0006B857C858D859E8520E030E04AEF54E418
:104200000E941F02DC01CB018F839887A987BA87A0
:104210006F81788589859A8520E030E040E85FE30A
:104220000E94250488232CF481E090E09E838D83F6
:104230003FC06F81788589859A8520E03FEF4FE701
:1042400057E40E94C50318164CF56B857C858D8557
:104250009E8520E030E040E251E40E941F02DC0134
:10426000CB01BC01CD010E944900DC01CB019E8342
:104270008D830FC088EC90E09C838B838B819C8125
:104280000197F1F79C838B838D819E8101979E839B
:104290008D838D819E81009769F714C06F81788529
:1042A00089859A850E944900DC01CB019E838D831C
:1042B0008D819E819A83898389819A810197F1F703
:1042C0009A8389836D960FB6F894DEBF0FBECDBF7B
:1042D000CF91DF910895DF93CF93CDB7DEB76D9780
:1042E0000FB6F894DEBF0FBECDBF8D8FA2E3B0E056
:1042F000E2E3F0E080818F7E8C93A2E3B0E0E2E322
:10430000F0E080818F7B8C93A2E3B0E0E2E3F0E009
:10431000808188608C93E5E3F0E08D8D808380E080
:1043200090E0A0E0B0E4898F9A8FAB8FBC8F698D4D
:104330007A8D8B8D9C8D20E030E04AEF54E40E9412
:104340001F02DC01CB018D8B9E8BAF8BB88F6D89EB
:104350007E898F89988D20E030E040E85FE30E94FD
:10436000250488232CF481E090E09C8B8B8B3FC04C
:104370006D897E898F89988D20E03FEF4FE757E464
:104380000E94C50318164CF5698D7A8D8B8D9C8D16
:1043900020E030E040E251E40E941F02DC01CB014A
:1043A000BC01CD010E944900DC01CB019C8B8B8BB1
:1043B0000FC088EC90E09A8B898B89899A89019744
:1043C000F1F79A8B898B8B899C8901979C8B8B8BBE
:1043D0008B899C89009769F714C06D897E898F89C4
:1043E000988D0E944900DC01CB019C8B8B8B8B89C3
:1043F0009C89988B8F878F8598890197F1F7988B87
:104400008F87A2E3B0E0E2E3F0E08081877F8C93C6
:1044100080E090E0A0E2B1E48B879C87AD87BE8707
:104420006B857C858D859E8520E030E04AEF54E4E5
:104430000E941F02DC01CB018F839887A987BA876E
:104440006F81788589859A8520E030E040E85FE3D8
:104450000E94250488232CF481E090E09E838D83C4
:104460003FC06F81788589859A8520E03FEF4FE7CF
:1044700057E40E94C50318164CF56B857C858D8525
:104480009E8520E030E040E251E40E941F02DC0102
:10449000CB01BC01CD010E944900DC01CB019E8310
:1044A0008D830FC088EC90E09C838B838B819C81F3
:1044B0000197F1F79C838B838D819E8101979E8369
:1044C0008D838D819E81009769F714C06F817885F7
:1044D00089859A850E944900DC01CB019E838D83EA
:1044E0008D819E819A83898389819A810197F1F7D1
:1044F0009A8389836D960FB6F894DEBF0FBECDBF49
:10450000CF91DF9108950F931F93DF93CF93CDB792
:10451000DEB7C654D0400FB6F894DEBF0FBECDBF95
:10452000E4E3F0E08FEF8083A1E3B0E0E1E3F0E0CB
:10453000808180618C93A1E3B0E0E1E3F0E08081D1
:1045400080648C93A1E3B0E0E1E3F0E080818860D7
:104550008C93FE01ED5BFF4F80E090E0A0EFB1E4B3
:1045600080839183A283B3838E01015C1F4FFE0180
:10457000ED5BFF4F608171818281938120E030E0AB
:104580004AEF54E40E941F02DC01CB01F801808352
:104590009183A283B383FE01FF9660817181828142
:1045A000938120E030E040E85FE30E942504882307
:1045B0002CF481E090E09EAF8DAF46C0FE01FF96E7
:1045C000608171818281938120E03FEF4FE757E462
:1045D0000E94C503181664F5FE01ED5BFF4F608174
:1045E00071818281938120E030E040E251E40E94B9
:1045F0001F02DC01CB01BC01CD010E944900DC019E
:10460000CB019EAF8DAF0FC088EC90E09CAF8BAF1D
:104610008BAD9CAD0197F1F79CAF8BAF8DAD9EAD8F
:1046200001979EAF8DAF8DAD9EAD009769F716C017
:10463000FE01FF9660817181828193810E94490011
:10464000DC01CB019EAF8DAF8DAD9EAD9AAF89AF32
:1046500089AD9AAD0197F1F79AAF89AF88E30E94CF
:104660006B2180E090E0A0E0B0E48DAB9EABAFABFF
:10467000B8AF6DA97EA98FA998AD20E030E04AEFD0
:1046800054E40E941F02DC01CB0189AB9AABABABB7
:10469000BCAB69A97AA98BA99CA920E030E040E8CD
:1046A0005FE30E94250488232CF481E090E098AB1E
:1046B0008FA73FC069A97AA98BA99CA920E03FEFE9
:1046C0004FE757E40E94C50318164CF56DA97EA963
:1046D0008FA998AD20E030E040E251E40E941F0233
:1046E000DC01CB01BC01CD010E944900DC01CB0102
:1046F00098AB8FA70FC088EC90E09EA78DA78DA5E3
:104700009EA50197F1F79EA78DA78FA598A9019760
:1047100098AB8FA78FA598A9009769F714C069A9CE
:104720007AA98BA99CA90E944900DC01CB0198AB16
:104730008FA78FA598A99CA78BA78BA59CA5019750
:10474000F1F79CA78BA78CE00E946B2180E090E0A2
:10475000A0E0B0E48FA398A7A9A7BAA76FA178A5F6
:1047600089A59AA520E030E04AEF54E40E941F0298
:10477000DC01CB018BA39CA3ADA3BEA36BA17CA149
:104780008DA19EA120E030E040E85FE30E94250477
:1047900088232CF481E090E09AA389A33FC06BA109
:1047A0007CA18DA19EA120E03FEF4FE757E40E943E
:1047B000C50318164CF56FA178A589A59AA520E028
:1047C00030E040E251E40E941F02DC01CB01BC0159
:1047D000CD010E944900DC01CB019AA389A30FC03F
:1047E00088EC90E098A38F8F8F8D98A10197F1F7B7
:1047F00098A38F8F89A19AA101979AA389A389A1D0
:104800009AA1009769F714C06BA17CA18DA19EA10C
:104810000E944900DC01CB019AA389A389A19AA136
:104820009E8F8D8F8D8D9E8D0197F1F79E8F8D8F31
:1048300081E00E946B2180E090E0A0E0B0E4898FED
:104840009A8FAB8FBC8F698D7A8D8B8D9C8D20E07C
:1048500030E04AEF54E40E941F02DC01CB018D8B53
:104860009E8BAF8BB88F6D897E898F89988D20E064
:1048700030E040E85FE30E94250488232CF481E0C7
:1048800090E09C8B8B8B3FC06D897E898F89988D42
:1048900020E03FEF4FE757E40E94C50318164CF5A0
:1048A000698D7A8D8B8D9C8D20E030E040E251E463
:1048B0000E941F02DC01CB01BC01CD010E94490016
:1048C000DC01CB019C8B8B8B0FC088EC90E09A8B2A
:1048D000898B89899A890197F1F79A8B898B8B89C2
:1048E0009C8901979C8B8B8B8B899C89009769F79E
:1048F00014C06D897E898F89988D0E944900DC01E2
:10490000CB019C8B8B8B8B899C89988B8F878F8518
:1049100098890197F1F7988B8F8786E00E946B2129
:1049200080E090E0A0E0B0E48B879C87AD87BE87F5
:104930006B857C858D859E8520E030E04AEF54E4D0
:104940000E941F02DC01CB018F839887A987BA8759
:104950006F81788589859A8520E030E040E85FE3C3
:104960000E94250488232CF481E090E09E838D83AF
:104970003FC06F81788589859A8520E03FEF4FE7BA
:1049800057E40E94C50318164CF56B857C858D8510
:104990009E8520E030E040E251E40E941F02DC01ED
:1049A000CB01BC01CD010E944900DC01CB019E83FB
:1049B0008D830FC088EC90E09C838B838B819C81DE
:1049C0000197F1F79C838B838D819E8101979E8354
:1049D0008D838D819E81009769F714C06F817885E2
:1049E00089859A850E944900DC01CB019E838D83D5
:1049F0008D819E819A83898389819A810197F1F7BC
:104A00009A838983CA5BDF4F0FB6F894DEBF0FBE6F
:104A1000CDBFCF91DF911F910F910895DF93CF9379
:104A200000D000D0CDB7DEB789836A838A81803118
:104A3000C0F48981282F30E03C832B838B819C81BB
:104A4000009731F02B813C812130310531F009C0D4
:104A50008A8180580E946B2104C08A8180540E9400
:104A60006B210F900F900F900F90CF91DF910895D1
:104A7000DF93CF93CDB7DEB781E00E946B21CF915A
:104A8000DF910895DF93CF9300D00F92CDB7DEB7BB
:104A90009B838A83198219820EC08981282F30E076
:104AA0008A819B81FC01E20FF31F80810E945320C9
:104AB00089818F5F89838981282F30E08A819B815A
:104AC000FC01E20FF31F8081882339F70F900F90CC
:104AD0000F90CF91DF9108950F931F93DF93CF93A2
:104AE000CDB7DEB760970FB6F894DEBF0FBECDBF6F
:104AF0006D877E878F87988B8D859E85AF85B889DA
:104B00000097A105B10521F480E30E94532056C00F
:104B10008BE0FE013296DF01982F1D929A95E9F7FE
:104B2000198230C08981082F112707FD10958D85C6
:104B30009E85AF85B8892AE030E040E050E0BC01B6
:104B4000CD010E943136DC01CB01282F205DCE0142
:104B50000296FC01E00FF11F208389818F5F89831A
:104B60008D859E85AF85B8892AE030E040E050E031
:104B7000BC01CD010E943136DA01C9018D879E87C3
:104B8000AF87B88B8D859E85AF85B8890097A105C5
:104B9000B10541F610C08981815089838981282F10
:104BA000332727FD3095CE010296FC01E20FF31F5B
:104BB00080810E945320898118166CF360960FB68D
:104BC000F894DEBF0FBECDBFCF91DF911F910F9143
:104BD00008950F931F93DF93CF93CDB7DEB7ED9773
:104BE0000FB6F894DEBF0FBECDBF69AF7AAF8BAF03
:104BF0009CAF4DAF69AD7AAD8BAD9CAD0E944900C5
:104C0000DC01CB018A879B87AC87BD876A857B8562
:104C10008C859D850E9407059B01AC0169AD7AAD2D
:104C20008BAD9CAD0E94C101DC01CB018E839F83C3
:104C3000A887B9871D828A859B85AC85BD8500972D
:104C4000A105B10571F48D81282F30E0CE010E96BB
:104C5000FC01E20FF31F80E380838D818F5F8D83E2
:104C600054C01C822EC08C81082F10E08A859B8541
:104C7000AC85BD852AE030E040E050E0BC01CD01CC
:104C80000E943136DC01CB01282F205DCE018E96AB
:104C9000FC01E00FF11F20838C818F5F8C838A855C
:104CA0009B85AC85BD852AE030E040E050E0BC014A
:104CB000CD010E943136DA01C9018A879B87AC8712
:104CC000BD878A859B85AC85BD850097A105B1050B
:104CD00051F618C08D81482F50E08C8181508C8313
:104CE0008C81282F30E0CE018E96FC01E20FF31F5D
:104CF0002081CE010E96FC01E40FF51F20838D81EB
:104D00008F5F8D838C81882329F78D81282F30E058
:104D1000CE010E96FC01E20FF31F8EE280838D819F
:104D20008F5F8D831B8244C06E817F8188859985CA
:104D300020E030E040E251E40E941F02DC01CB01A0
:104D40008E839F83A887B9876E817F8188859985A7
:104D50000E944900DC01CB018A838D81282F30E03D
:104D60008A81482F405DCE010E96FC01E20FF31FB1
:104D700040838D818F5F8D838A81882F90E0AA2761
:104D800097FDA095BA2FBC01CD010E9455049B014F
:104D9000AC016E817F81888599850E94C101DC010B
:104DA000CB018E839F83A887B9878B818F5F8B838D
:104DB0009B818DAD981708F4B7CF8D81282F30E0F7
:104DC000CE010E96FC01E20FF31F108219820EC075
:104DD0008981282F30E0CE010E96FC01E20FF31FEF
:104DE00080810E94532089818F5F89838981282F48
:104DF00030E0CE010E96FC01E20FF31F8081882384
:104E000039F7ED960FB6F894DEBF0FBECDBFCF9148
:104E1000DF911F910F910895DF93CF93CDB7DEB748
:104E2000A7E3B0E0E7E3F0E0808181608C93A7E343
:104E3000B0E0E7E3F0E0808182608C93A7E3B0E02C
:104E4000E7E3F0E0808184608C93A7E3B0E0E7E3E0
:104E5000F0E0808188608C93A7E3B0E0E7E3F0E0C6
:104E600080818F7E8C93A7E3B0E0E7E3F0E0808160
:104E70008F7D8C93A7E3B0E0E7E3F0E080818F7B48
:104E80008C93A7E3B0E0E7E3F0E080818F778C9329
:104E9000E8E3F0E08FEF8083CF91DF910895DF9317
:104EA000CF93CDB7DEB761970FB6F894DEBF0FBED4
:104EB000CDBF198A188A1F86198ADDC0A8E3B0E021
:104EC000E8E3F0E08081482F8989882F90E0FC0199
:104ED000E65EFD4F8081282F30E081E090E0022ED9
:104EE00002C0880F991F0A94E2F7809584238C935F
:104EF000188AA1C0E6E3F0E08081282F30E088899D
:104F0000882F90E0FC01E25EFD4F8081882F90E0C9
:104F1000A90102C0559547958A95E2F7CA018170AB
:104F20009070009709F084C08989482F50E08889E3
:104F3000282F30E0CA01880F991F880F991F820F10
:104F4000931FFC01EE5DFD4F80818F8780E090E034
:104F5000A0E2B1E48B879C87AD87BE876B857C859B
:104F60008D859E8520E030E04AEF54E40E941F02C8
:104F7000DC01CB018F839887A987BA876F817885F9
:104F800089859A8520E030E040E85FE30E942504AF
:104F900088232CF481E090E09E838D833FC06F8155
:104FA000788589859A8520E03FEF4FE757E40E9496
:104FB000C50318164CF56B857C858D859E8520E094
:104FC00030E040E251E40E941F02DC01CB01BC0151
:104FD000CD010E944900DC01CB019E838D830FC06F
:104FE00088EC90E09C838B838B819C810197F1F707
:104FF0009C838B838D819E8101979E838D838D8180
:105000009E81009769F714C06F81788589859A859C
:105010000E944900DC01CB019E838D838D819E819E
:105020009A83898389819A810197F1F79A83898389
:1050300088898F5F888B8889843008F45BCFA8E3E8
:10504000B0E0E8E3F0E08081482F8989882F90E084
:10505000FC01E65EFD4F8081282F30E081E090E08A
:10506000022E02C0880F991F0A94E2F7842B8C93BA
:1050700089898F5F898B8989843008F41FCF8F8558
:1050800061960FB6F894DEBF0FBECDBFCF91DF9112
:105090000895DF93CF93CDB7DEB761970FB6F8943D
:1050A000DEBF0FBECDBF198A188A1F86198AF6C0C7
:1050B000A8E3B0E0E8E3F0E08081482F8989882FF9
:1050C00090E0FC01E65EFD4F8081282F30E081E01A
:1050D00090E0022E02C0880F991F0A94E2F7809593
:1050E00084238C93188ABAC0E6E3F0E08081282FED
:1050F00030E08889882F90E0FC01E25EFD4F8081DE
:10510000882F90E0A90102C0559547958A95E2F74E
:10511000CA0181709070009709F09DC08989482F5D
:1051200050E08889282F30E0CA01880F991F880F26
:10513000991F820F931FFC01EE5DFD4F80818F87C9
:1051400080E090E0A0E2B1E48B879C87AD87BE87CA
:105150006B857C858D859E8520E030E04AEF54E4A8
:105160000E941F02DC01CB018F839887A987BA8731
:105170006F81788589859A8520E030E040E85FE39B
:105180000E94250488232CF481E090E09E838D8387
:105190003FC06F81788589859A8520E03FEF4FE792
:1051A00057E40E94C50318164CF56B857C858D85E8
:1051B0009E8520E030E040E251E40E941F02DC01C5
:1051C000CB01BC01CD010E944900DC01CB019E83D3
:1051D0008D830FC088EC90E09C838B838B819C81B6
:1051E0000197F1F79C838B838D819E8101979E832C
:1051F0008D838D819E81009769F714C06F817885BA
:1052000089859A850E944900DC01CB019E838D83AC
:105210008D819E819A83898389819A810197F1F793
:105220009A838983E6E3F0E08081282F30E0888943
:10523000882F90E0FC01E25EFD4F8081882F90E096
:10524000A90102C0559547958A95E2F7CA01817078
:105250009070009739F388898F5F888B88898430B4
:1052600008F442CFA8E3B0E0E8E3F0E08081482F03
:105270008989882F90E0FC01E65EFD4F8081282F10
:1052800030E081E090E0022E02C0880F991F0A945E
:10529000E2F7842B8C9389898F5F898B898984308D
:1052A00008F406CF8F8561960FB6F894DEBF0FBE67
:1052B000CDBFCF91DF910895DF93CF93CDB7DEB708
:1052C00081E060E00E9482182DE939E281E0B901B5
:1052D0000E94F61981E00E948119CF91DF91089513
:1052E000DF93CF9300D000D0CDB7DEB79A83898308
:1052F0007C836B8380916A0290916B02A0916C0217
:10530000B0916D02E981FA8180839183A283B38396
:1053100080916E0290916F02A0917002B091710223
:10532000EB81FC8180839183A283B3830F900F90E4
:105330000F900F90CF91DF910895AF92BF92CF92CF
:10534000DF92EF92FF920F931F93DF93CF9300D0E2
:10535000CDB7DEB780917802282F30E03A832983D9
:1053600049815A8141305105D1F089819A81823039
:105370009105A1F129813A812115310509F0B6C0C5
:1053800081E00E94BF11909377028093760281E0C2
:1053900061E00E94821881E080937802A7C081E0DA
:1053A0000E94BF119C018091760290917702A90121
:1053B000481B590BCA01909375028093740281E0D7
:1053C0000E94BF11909377028093760281E060E0A3
:1053D0000E94821882E08093780288C081E00E9457
:1053E000BF119C018091760290917702A901481B20
:1053F000590BCA0190937302809372022091740238
:10540000309175028091720290917302820F931F06
:10541000CC01A0E0B0E0BC01CD010E940705DC0199
:10542000CB01BC01CD0120E030E040E053E40E941C
:105430001F02DC01CB019C01AD0160E074E284E756
:1054400099E40E941903DC01CB0180936E029093D2
:105450006F02A0937002B0937102809174029091D8
:105460007502CC01A0E0B0E0BC01CD010E940705AF
:105470005B016C018091740290917502CC01A0E0F7
:10548000B0E0BC01CD010E9407057B018C01809139
:10549000720290917302CC01A0E0B0E0BC01CD019A
:1054A0000E9407059B01AC01C801B7010E94F201EF
:1054B000DC01CB019C01AD01C601B5010E941903BD
:1054C000DC01CB01BC01CD0120E030E048EC52E42E
:1054D0000E941F02DC01CB0180936A0290936B0251
:1054E000A0936C02B0936D02109278020F900F900F
:1054F000CF91DF911F910F91FF90EF90DF90CF90B0
:10550000BF90AF900895DF93CF93CDB7DEB789E317
:1055100090E064E040E00E94ED1A89E390E061E0F1
:105520004FEF0E94ED1ACF91DF910895DF93CF9353
:10553000CDB7DEB789E390E064E04FEF0E94ED1A4B
:1055400089E390E061E040E00E94ED1ACF91DF91A5
:105550000895DF93CF93CDB7DEB7AE970FB6F8942B
:10556000DEBF0FBECDBF1BA61CA61DA61EA689E3CF
:1055700090E064E040E00E94ED1A1BA61CA61DA668
:105580001EA679C189E390E061E04FEF0E94ED1A19
:1055900080E090E0A6E9B3E48FA398A7A9A7BAA7F3
:1055A0006FA178A589A59AA520E030E04AEF54E4E0
:1055B0000E941F02DC01CB018BA39CA3ADA3BEA361
:1055C0006BA17CA18DA19EA120E030E040E85FE3CB
:1055D0000E94250488232CF481E090E09AA389A3FB
:1055E0003FC06BA17CA18DA19EA120E03FEF4FE7C2
:1055F00057E40E94C50318164CF56FA178A589A53C
:105600009AA520E030E040E251E40E941F02DC0154
:10561000CB01BC01CD010E944900DC01CB019AA362
:1056200089A30FC088EC90E098A38F8F8F8D98A1ED
:105630000197F1F798A38F8F89A19AA101979AA357
:1056400089A389A19AA1009769F714C06BA17CA1D5
:105650008DA19EA10E944900DC01CB019AA389A3E0
:1056600089A19AA19E8F8D8F8D8D9E8D0197F1F7C7
:105670009E8F8D8F89E390E061E040E00E94ED1AFB
:1056800080E090E0A6E9B3E4898F9A8FAB8FBC8F5E
:10569000698D7A8D8B8D9C8D20E030E04AEF54E44B
:1056A0000E941F02DC01CB018D8B9E8BAF8BB88FCC
:1056B0006D897E898F89988D20E030E040E85FE336
:1056C0000E94250488232CF481E090E09C8B8B8B36
:1056D0003FC06D897E898F89988D20E03FEF4FE72D
:1056E00057E40E94C50318164CF5698D7A8D8B8D91
:1056F0009C8D20E030E040E251E40E941F02DC017A
:10570000CB01BC01CD010E944900DC01CB019C8B87
:105710008B8B0FC088EC90E09A8B898B89899A8952
:105720000197F1F79A8B898B8B899C8901979C8BC8
:105730008B8B8B899C89009769F714C06D897E8952
:105740008F89988D0E944900DC01CB019C8B8B8B4B
:105750008B899C89988B8F878F8598890197F1F722
:10576000988B8F8789E390E060E840E00E94ED1A13
:1057700080E090E0A6E9B3E48B879C87AD87BE8785
:105780006B857C858D859E8520E030E04AEF54E472
:105790000E941F02DC01CB018F839887A987BA87FB
:1057A0006F81788589859A8520E030E040E85FE365
:1057B0000E94250488232CF481E090E09E838D8351
:1057C0003FC06F81788589859A8520E03FEF4FE75C
:1057D00057E40E94C50318164CF56B857C858D85B2
:1057E0009E8520E030E040E251E40E941F02DC018F
:1057F000CB01BC01CD010E944900DC01CB019E839D
:105800008D830FC088EC90E09C838B838B819C817F
:105810000197F1F79C838B838D819E8101979E83F5
:105820008D838D819E81009769F714C06F81788583
:1058300089859A850E944900DC01CB019E838D8376
:105840008D819E819A83898389819A810197F1F75D
:105850009A83898389E390E060E84FEF0E94ED1A14
:105860008BA59CA5ADA5BEA50196A11DB11D8BA7BD
:105870009CA7ADA7BEA78BA59CA5ADA5BEA58B304B
:105880009105A105B10508F47DCEAE960FB6F8944A
:10589000DEBF0FBECDBFCF91DF9108950F931F9351
:1058A000DF93CF93CDB7DEB7C654D0400FB6F89490
:1058B000DEBF0FBECDBF0E944F2780937A0280913A
:1058C0007A02803308F4B1C080917A028A3308F0FA
:1058D000ACC080917B0290917C029C01220F331F0F
:1058E000C901880F991F880F991F280F391F8091B0
:1058F0007A02882F90E0820F931FC09790937C02CA
:1059000080937B020E94382580917B0290917C02DB
:10591000CC01A0E0B0E0BC01CD010E946C25FE01ED
:10592000ED5BFF4F80E090E0AAEFB3E480839183CA
:10593000A283B3838E01015C1F4FFE01ED5BFF4F1D
:10594000608171818281938120E030E04AEF54E4EC
:105950000E941F02DC01CB01F80180839183A283A6
:10596000B383FE01FF96608171818281938120E083
:1059700030E040E85FE30E94250488232CF481E0B6
:1059800090E09EAF8DAF46C0FE01FF9660817181B1
:105990008281938120E03FEF4FE757E40E94C503E7
:1059A000181664F5FE01ED5BFF4F60817181828105
:1059B000938120E030E040E251E40E941F02DC01CC
:1059C000CB01BC01CD010E944900DC01CB019EAF9F
:1059D0008DAF0FC088EC90E09CAF8BAF8BAD9CADD2
:1059E0000197F1F79CAF8BAF8DAD9EAD01979EAF48
:1059F0008DAF8DAD9EAD009769F73EC2FE01FF965B
:105A000060817181828193810E944900DC01CB0118
:105A10009EAF8DAF8DAD9EAD9AAF89AF89AD9AAD7A
:105A20000197F1F79AAF89AF27C280917A028D333F
:105A300009F022C2209114023091150280917B025C
:105A400090917C022817390709F0FFC081E060E0DF
:105A50000E940E2580E690E00E9442250E94962A30
:105A60008AE50E94E41D80E090E0AAEFB4E48DABEB
:105A70009EABAFABB8AF6DA97EA98FA998AD20E062
:105A800030E04AEF54E40E941F02DC01CB0189ABF5
:105A90009AABABABBCAB69A97AA98BA99CA920E056
:105AA00030E040E85FE30E94250488232CF481E085
:105AB00090E098AB8FA73FC069A97AA98BA99CA950
:105AC00020E03FEF4FE757E40E94C50318164CF55E
:105AD0006DA97EA98FA998AD20E030E040E251E4A5
